:100000000C942A000C9447000C9447000C94470071
:100010000C9447000C9447000C9447000C94470044
:100020000C9447000C9447000C9447000C94470034
:100030000C9447000C9447000C9447000C94470024
:100040000C9447000C9447000C9447000C94470014
:100050000C94470011241FBECFE5D4E0DEBFCDBF16
:1000600010E0A0E6B0E0E2E2F8E002C005900D92F8
:10007000A638B107D9F710E0A6E8B0E001C01D929C
:10008000A638B107E1F70E94E0000C940F040C942D
:100090000000282F207F2BBBDA98DB9A20ED37E079
:1000A000F9013197F1F7DB98F9013197F1F790E019
:1000B00044E0880F991F4A95E1F78BBBDA98DB9AE9
:1000C000C9010197F1F7DB98C9010197F1F708958C
:1000D00082E090E00E94490088E290E00E9449009E
:1000E00086E090E00E9449008CE090E00E94490088
:1000F0000895282F207F2BBBDA9ADB9A20ED37E07A
:10010000F9013197F1F7DB98F9013197F1F790E0B8
:1001100054E0880F991F5A95E1F78BBBDA9ADB9A66
:10012000C9010197F1F7DB98C9010197F1F708952B
:1001300081E00E94490080ED97E00197F1F7089572
:100140001F93CF93DF93EC0110E003C00E9479006E
:100150001F5FFE01E10FF11D80818823B9F7DF9158
:10016000CF911F910895CF93DF93EC0184E00E941B
:100170004900209791F480E30E9479000EC0CE01DF
:100180006AE070E00E94C403805D0E947900CE01A5
:100190006AE070E00E94C403EB01209781F786E0DB
:1001A0000E944900DF91CF91089587B38F7487BB78
:1001B000BE9A80E48DB90895779BFECF8FB10895E4
:1001C000EF92FF920F931F93DF93CF9300D000D055
:1001D0000F92CDB7DEB78FEF8ABB0E94680087B35E
:1001E0008F7487BBBE9A80E48DB980E690E00E9450
:1001F000A00080EC0E9449008DE690E00E94A000E3
:100200006FE7E62E60E0F62E8E010F5F1F4F779BA3
:10021000FECF8FB190E09F938F93FF92EF921F9349
:100220000F930E9422018EEC0E944900C8010E9497
:10023000A0008DB79EB706960FB6F8949EBF0FBE6E
:100240008DBFE5CFAEE0B0E0E8E2F1E00C94E6036C
:100250000D891E8986E08C831A8309838FEF9FE7BF
:100260009E838D83CE014996AC016F89788DCE0136
:1002700001960E9445012F813885020F131FF80156
:1002800010822E96E4E00C940204ABE0B0E0EBE4C4
:10029000F1E00C94D8033C012B015A01FC011782B8
:1002A0001682838181FD03C06FEF7FEFC8C19AE0A2
:1002B000892E1E010894211C311CF3012381F201B7
:1002C00023FD859123FF81912F01882309F4B4C177
:1002D000853239F423FD859123FF81912F018532E9
:1002E00029F4B30190E00E943A03E7CF982FDD2470
:1002F000CC249924FFE1FD15D0F09B3269F09C32AB
:1003000028F4903259F0933291F40EC09D3249F0A6
:10031000903369F441E024C052E0D52A84E0D82A21
:1003200028C098E0D92A25C0E0E1DE2A22C0D7FC07
:1003300029C0892F80538A3070F4D6FE05C0989C5E
:10034000902C1124980E15C0C89CC02C1124C80EE6
:10035000F0E2DF2A0EC09E3229F4D6FC6DC140E4E3
:10036000D42A07C09C3619F450E8D52A02C0983622
:1003700049F4F20123FD959123FF91912F019923D7
:1003800009F0B8CF892F8554833018F0805283301C
:1003900038F444E050E0A40EB51E5FE359830FC06B
:1003A000933631F0933779F0933509F056C020C079
:1003B000F5018081898342E050E0A40EB51E7101F1
:1003C00001E010E012C0F501E080F180D6FC03C02E
:1003D0006FEF7FEF02C0692D70E042E050E0A40EA5
:1003E000B51EC7010E942F038C015FE7D52214C000
:1003F000F501E080F180D6FC03C06FEF7FEF02C013
:10040000692D70E042E050E0A40EB51EC7010E94C5
:1004100024038C0150E8D52AD3FE07C01AC0B301CB
:1004200080E290E00E943A03CA948C2D90E0081775
:100430001907A8F30EC0F701D7FC8591D7FE81916B
:100440007F01B30190E00E943A03C110CA940150A9
:1004500010400115110579F7ECC0943611F099366A
:1004600071F5D7FE08C0F501E080F18002811381AB
:1004700044E050E00AC0F501808191817C010027B1
:10048000F7FC0095102F42E050E0A40EB51E5FE689
:10049000D52217FF0AC010950095F094E094E11C56
:1004A000F11C011D111D80E8D82A2AE030E0A101CD
:1004B000C801B7010E946603F82EF21840C09537B4
:1004C00029F41D2D1F7E2AE030E01DC01D2D197F4F
:1004D0009F3661F0903720F4983509F0ADC00FC019
:1004E000903739F0983709F0A7C004C028E030E011
:1004F0000AC0106114FD146020E130E004C014FD56
:10050000166020E132E017FF08C0F50160817181BB
:100510008281938144E050E008C0F501808191819F
:10052000BC0180E090E042E050E0A40EB51EA101C5
:100530000E946603F82EF2188FE7D82ED122D6FE3D
:100540000BC05EEFD522F91438F4D4FE07C0D2FCFC
:1005500005C08FEED82202C01F2D01C0192DD4FE78
:100560000DC0FE01EF0DF11D8081803319F499EE6D
:10057000D92208C01F5FD2FE05C003C08D2D86782A
:1005800009F01F5F0D2DD3FC14C0D0FE0FC01C1549
:1005900010F09F2C0BC09F2C9C0C911A1C2D06C098
:1005A000B30180E290E00E943A031F5F1C15C0F384
:1005B00004C01C1510F4C11A01C0CC2404FF10C0E3
:1005C000B30180E390E00E943A0302FF1EC001FDE8
:1005D00003C088E790E002C088E590E0B3010CC05A
:1005E000802F867891F001FF02C08BE201C080E28B
:1005F000D7FC8DE2B30190E00E943A0306C0B3013C
:1006000080E390E00E943A039A94F914C0F3FA94BC
:10061000F101EF0DF11DB301808190E00E943A03DA
:10062000FF20A9F706C0B30180E290E00E943A03E0
:10063000CA94CC20C1F741CEF30166817781CB010A
:100640002B96E2E10C94F403FC010590615070409C
:100650000110D8F7809590958E0F9F1F0895FC018B
:100660006150704001900110D8F7809590958E0FE1
:100670009F1F08950F931F93CF93DF938C01EB017E
:100680008B8181FF1BC082FF0DC02E813F818C8139
:100690009D812817390764F4E881F9810193F98372
:1006A000E88306C0E885F985802F0995892B31F408
:1006B0008E819F8101969F838E8302C00FEF1FEF73
:1006C000C801DF91CF911F910F910895FA01AA27D8
:1006D000283051F1203181F1E8946F936E7F6E5F85
:1006E0007F4F8F4F9F4FAF4FB1E03ED0B4E03CD033
:1006F000670F781F891F9A1FA11D680F791F8A1F16
:10070000911DA11D6A0F711D811D911DA11D20D07C
:1007100009F468943F912AE0269F11243019305D36
:100720003193DEF6CF010895462F4770405D419327
:10073000B3E00FD0C9F7F6CF462F4F70405D4A3374
:1007400018F0495D31FD4052419302D0A9F7EACF3C
:10075000B4E0A6959795879577956795BA95C9F76B
:1007600000976105710508959B01AC010A2E06945E
:100770005795479537952795BA95C9F7620F731F17
:10078000841F951FA01D0895AA1BBB1B51E107C024
:10079000AA1FBB1FA617B70710F0A61BB70B881F11
:1007A000991F5A95A9F780959095BC01CD010895A0
:1007B0002F923F924F925F926F927F928F929F9271
:1007C000AF92BF92CF92DF92EF92FF920F931F935F
:1007D000CF93DF93CDB7DEB7CA1BDB0B0FB6F89410
:1007E000DEBF0FBECDBF09942A88398848885F8450
:1007F0006E847D848C849B84AA84B984C884DF80C1
:10080000EE80FD800C811B81AA81B981CE0FD11DA4
:100810000FB6F894DEBF0FBECDBFED010895F8947A
:02082000FFCF08
:10082200536C617665204465766963650052656341
:100832006569766520446174613A20202020002594
:06084200642020200000EC
:00000001FF
